{"abi":[{"type":"constructor","inputs":[{"name":"_pancakeswap_router","type":"address","internalType":"address"},{"name":"_initialSupply","type":"uint256","internalType":"uint256"},{"name":"_authority","type":"address","internalType":"address"}],"stateMutability":"nonpayable"},{"type":"receive","stateMutability":"payable"},{"type":"function","name":"allowance","inputs":[{"name":"owner","type":"address","internalType":"address"},{"name":"spender","type":"address","internalType":"address"}],"outputs":[{"name":"","type":"uint256","internalType":"uint256"}],"stateMutability":"view"},{"type":"function","name":"approve","inputs":[{"name":"spender","type":"address","internalType":"address"},{"name":"amount","type":"uint256","internalType":"uint256"}],"outputs":[{"name":"","type":"bool","internalType":"bool"}],"stateMutability":"nonpayable"},{"type":"function","name":"authority","inputs":[],"outputs":[{"name":"","type":"address","internalType":"address"}],"stateMutability":"view"},{"type":"function","name":"balanceOf","inputs":[{"name":"account","type":"address","internalType":"address"}],"outputs":[{"name":"","type":"uint256","internalType":"uint256"}],"stateMutability":"view"},{"type":"function","name":"burnFrom","inputs":[{"name":"account","type":"address","internalType":"address"},{"name":"amount","type":"uint256","internalType":"uint256"}],"outputs":[{"name":"","type":"bool","internalType":"bool"}],"stateMutability":"nonpayable"},{"type":"function","name":"decimals","inputs":[],"outputs":[{"name":"","type":"uint8","internalType":"uint8"}],"stateMutability":"view"},{"type":"function","name":"decreaseAllowance","inputs":[{"name":"spender","type":"address","internalType":"address"},{"name":"subtractedValue","type":"uint256","internalType":"uint256"}],"outputs":[{"name":"","type":"bool","internalType":"bool"}],"stateMutability":"nonpayable"},{"type":"function","name":"distributionContract","inputs":[],"outputs":[{"name":"","type":"address","internalType":"address"}],"stateMutability":"view"},{"type":"function","name":"exemptFee","inputs":[{"name":"","type":"uint256","internalType":"uint256"}],"outputs":[{"name":"","type":"address","internalType":"address"}],"stateMutability":"view"},{"type":"function","name":"feeAuthority","inputs":[],"outputs":[{"name":"","type":"address","internalType":"address"}],"stateMutability":"view"},{"type":"function","name":"increaseAllowance","inputs":[{"name":"spender","type":"address","internalType":"address"},{"name":"addedValue","type":"uint256","internalType":"uint256"}],"outputs":[{"name":"","type":"bool","internalType":"bool"}],"stateMutability":"nonpayable"},{"type":"function","name":"name","inputs":[],"outputs":[{"name":"","type":"string","internalType":"string"}],"stateMutability":"view"},{"type":"function","name":"setDistributionContractAndRenounce","inputs":[{"name":"_distributionContract","type":"address","internalType":"address"}],"outputs":[],"stateMutability":"nonpayable"},{"type":"function","name":"setExemptFeeAndDisableAtCap","inputs":[{"name":"_who","type":"address","internalType":"address"}],"outputs":[],"stateMutability":"nonpayable"},{"type":"function","name":"symbol","inputs":[],"outputs":[{"name":"","type":"string","internalType":"string"}],"stateMutability":"view"},{"type":"function","name":"totalSupply","inputs":[],"outputs":[{"name":"","type":"uint256","internalType":"uint256"}],"stateMutability":"view"},{"type":"function","name":"transfer","inputs":[{"name":"recipient","type":"address","internalType":"address"},{"name":"amount","type":"uint256","internalType":"uint256"}],"outputs":[{"name":"","type":"bool","internalType":"bool"}],"stateMutability":"nonpayable"},{"type":"function","name":"transferFrom","inputs":[{"name":"sender","type":"address","internalType":"address"},{"name":"recipient","type":"address","internalType":"address"},{"name":"amount","type":"uint256","internalType":"uint256"}],"outputs":[{"name":"","type":"bool","internalType":"bool"}],"stateMutability":"nonpayable"},{"type":"event","name":"Approval","inputs":[{"name":"owner","type":"address","indexed":true,"internalType":"address"},{"name":"spender","type":"address","indexed":true,"internalType":"address"},{"name":"value","type":"uint256","indexed":false,"internalType":"uint256"}],"anonymous":false},{"type":"event","name":"DistributionContractUpdated","inputs":[{"name":"newContract","type":"address","indexed":true,"internalType":"address"}],"anonymous":false},{"type":"event","name":"ExemptFeeAdded","inputs":[{"name":"account","type":"address","indexed":true,"internalType":"address"}],"anonymous":false},{"type":"event","name":"Transfer","inputs":[{"name":"from","type":"address","indexed":true,"internalType":"address"},{"name":"to","type":"address","indexed":true,"internalType":"address"},{"name":"value","type":"uint256","indexed":false,"internalType":"uint256"}],"anonymous":false}],"bytecode":{"object":"0x60806040523480156200001157600080fd5b50604051620016c9380380620016c9833981016040819052620000349162000316565b604051806040016040528060098152602001684361736842756e6e7960b81b8152506040518060400160405280600581526020016442554e4e5960d81b8152508160039081620000859190620003fc565b506004620000948282620003fc565b505050620000cb620000ab620002a160201b60201c565b620000b96012600a620005dd565b620000c59085620005f5565b620002a5565b60008390506000816001600160a01b031663c45a01556040518163ffffffff1660e01b8152600401602060405180830381865afa15801562000111573d6000803e3d6000fd5b505050506040513d601f19601f820116820180604052508101906200013791906200060f565b6001600160a01b031663c9c6539630846001600160a01b031663ad5c46486040518163ffffffff1660e01b8152600401602060405180830381865afa15801562000185573d6000803e3d6000fd5b505050506040513d601f19601f82011682018060405250810190620001ab91906200060f565b6040516001600160e01b031960e085901b1681526001600160a01b039283166004820152911660248201526044016020604051808303816000875af1158015620001f9573d6000803e3d6000fd5b505050506040513d601f19601f820116820180604052508101906200021f91906200060f565b600580546001600160a01b038086166001600160a01b0319928316179092556006805483851690831617905560088054928716929091169190911790559050620002663390565b600980546001600160a01b0319166001600160a01b03929092169190911790555050600b805461ffff1916610501179055506200062d915050565b3390565b60028190556001600160a01b038216600081815260208181526040808320859055518481527fddf252ad1be2c89b69c2b068fc378daa952ba7f163c4a11628f55a4df523b3ef910160405180910390a35050565b80516001600160a01b03811681146200031157600080fd5b919050565b6000806000606084860312156200032c57600080fd5b6200033784620002f9565b9250602084015191506200034e60408501620002f9565b90509250925092565b634e487b7160e01b600052604160045260246000fd5b600181811c908216806200038257607f821691505b602082108103620003a357634e487b7160e01b600052602260045260246000fd5b50919050565b601f821115620003f757600081815260208120601f850160051c81016020861015620003d25750805b601f850160051c820191505b81811015620003f357828155600101620003de565b5050505b505050565b81516001600160401b0381111562000418576200041862000357565b62000430816200042984546200036d565b84620003a9565b602080601f8311600181146200046857600084156200044f5750858301515b600019600386901b1c1916600185901b178555620003f3565b600085815260208120601f198616915b82811015620004995788860151825594840194600190910190840162000478565b5085821015620004b85787850151600019600388901b60f8161c191681555b5050505050600190811b01905550565b634e487b7160e01b600052601160045260246000fd5b600181815b808511156200051f578160001904821115620005035762000503620004c8565b808516156200051157918102915b93841c9390800290620004e3565b509250929050565b6000826200053857506001620005d7565b816200054757506000620005d7565b81600181146200056057600281146200056b576200058b565b6001915050620005d7565b60ff8411156200057f576200057f620004c8565b50506001821b620005d7565b5060208310610133831016604e8410600b8410161715620005b0575081810a620005d7565b620005bc8383620004de565b8060001904821115620005d357620005d3620004c8565b0290505b92915050565b6000620005ee60ff84168362000527565b9392505050565b8082028115828204841417620005d757620005d7620004c8565b6000602082840312156200062257600080fd5b620005ee82620002f9565b61108c806200063d6000396000f3fe60806040526004361061010d5760003560e01c806379cc679011610095578063b0daff0b11610064578063b0daff0b146102f2578063bf7e214f14610314578063c19f7afa14610334578063d4cb1c5014610354578063dd62ed3e1461037457600080fd5b806379cc67901461027d57806395d89b411461029d578063a457c2d7146102b2578063a9059cbb146102d257600080fd5b8063313ce567116100dc578063313ce567146101b357806331dbd8a5146101cf57806339509351146102075780635a4528c21461022757806370a082311461024757600080fd5b806306fdde0314610119578063095ea7b31461014457806318160ddd1461017457806323b872dd1461019357600080fd5b3661011457005b600080fd5b34801561012557600080fd5b5061012e6103ba565b60405161013b9190610e34565b60405180910390f35b34801561015057600080fd5b5061016461015f366004610e9e565b61044c565b604051901515815260200161013b565b34801561018057600080fd5b506002545b60405190815260200161013b565b34801561019f57600080fd5b506101646101ae366004610ec8565b610463565b3480156101bf57600080fd5b506040516012815260200161013b565b3480156101db57600080fd5b506009546101ef906001600160a01b031681565b6040516001600160a01b03909116815260200161013b565b34801561021357600080fd5b50610164610222366004610e9e565b61051a565b34801561023357600080fd5b506007546101ef906001600160a01b031681565b34801561025357600080fd5b50610185610262366004610f04565b6001600160a01b031660009081526020819052604090205490565b34801561028957600080fd5b50610164610298366004610e9e565b610551565b3480156102a957600080fd5b5061012e6105ef565b3480156102be57600080fd5b506101646102cd366004610e9e565b6105fe565b3480156102de57600080fd5b506101646102ed366004610e9e565b61068f565b3480156102fe57600080fd5b5061031261030d366004610f04565b61069c565b005b34801561032057600080fd5b506008546101ef906001600160a01b031681565b34801561034057600080fd5b5061031261034f366004610f04565b610799565b34801561036057600080fd5b506101ef61036f366004610f26565b610841565b34801561038057600080fd5b5061018561038f366004610f3f565b6001600160a01b03918216600090815260016020908152604080832093909416825291909152205490565b6060600380546103c990610f72565b80601f01602080910402602001604051908101604052809291908181526020018280546103f590610f72565b80156104425780601f1061041757610100808354040283529160200191610442565b820191906000526020600020905b81548152906001019060200180831161042557829003601f168201915b5050505050905090565b600061045933848461086b565b5060015b92915050565b6000610470848484610990565b6001600160a01b0384166000908152600160209081526040808320338452909152902054828110156104fa5760405162461bcd60e51b815260206004820152602860248201527f42455032303a207472616e7366657220616d6f756e74206578636565647320616044820152676c6c6f77616e636560c01b60648201526084015b60405180910390fd5b61050f85335b61050a8685610fc2565b61086b565b506001949350505050565b3360008181526001602090815260408083206001600160a01b0387168452909152812054909161045991859061050a908690610fd5565b6001600160a01b0382166000908152600160209081526040808320338452909152812054828110156105d15760405162461bcd60e51b8152602060048201526024808201527f42455032303a206275726e20616d6f756e74206578636565647320616c6c6f77604482015263616e636560e01b60648201526084016104f1565b6105db8433610500565b6105e58484610b0d565b5060019392505050565b6060600480546103c990610f72565b3360009081526001602090815260408083206001600160a01b0386168452909152812054828110156106805760405162461bcd60e51b815260206004820152602560248201527f42455032303a2064656372656173656420616c6c6f77616e63652062656c6f77604482015264207a65726f60d81b60648201526084016104f1565b6105e5338561050a8685610fc2565b6000610459338484610990565b6009546001600160a01b0316336001600160a01b0316146106f35760405162461bcd60e51b81526020600482015260116024820152706e6f742066656520617574686f7269747960781b60448201526064016104f1565b600a805460018101825560008290527fc65a7bb8d6351c1cf70c95a316cc6a92839c986682d98bc35f958f4883f9d2a80180546001600160a01b0319166001600160a01b038416179055600b54905461010090910460ff16900361076257600980546001600160a01b03191690555b6040516001600160a01b038216907ff5ea5b2e367adcda3887b480c084346a1a66e35808b27198a31fc7d34e0b021f90600090a250565b6008546001600160a01b0316336001600160a01b0316146107ed5760405162461bcd60e51b815260206004820152600e60248201526d1b9bdd08185d5d1a1bdc9a5e995960921b60448201526064016104f1565b600780546001600160a01b0383166001600160a01b031991821681179092556008805490911690556040517f0d5d6bb96211eff5903428aa38f453d30e660b4533930d6a20a2cb56056a959890600090a250565b600a818154811061085157600080fd5b6000918252602090912001546001600160a01b0316905081565b6001600160a01b0383166108cd5760405162461bcd60e51b8152602060048201526024808201527f42455032303a20617070726f76652066726f6d20746865207a65726f206164646044820152637265737360e01b60648201526084016104f1565b6001600160a01b03821661092e5760405162461bcd60e51b815260206004820152602260248201527f42455032303a20617070726f766520746f20746865207a65726f206164647265604482015261737360f01b60648201526084016104f1565b6001600160a01b0383811660008181526001602090815260408083209487168084529482529182902085905590518481527f8c5be1e5ebec7d5bd14f71427d1e84f3dd0314c0f7b2291e5b200ac8c7c3b92591015b60405180910390a3505050565b600081116109f25760405162461bcd60e51b815260206004820152602960248201527f5472616e7366657220616d6f756e74206d7573742062652067726561746572206044820152687468616e207a65726f60b81b60648201526084016104f1565b600b54600090606490610a089060ff1684610fe8565b610a129190610fff565b600a5490915015610ac25760005b600a5460ff82161015610ac057846001600160a01b0316600a8260ff1681548110610a4d57610a4d611021565b6000918252602090912001546001600160a01b03161480610aa05750836001600160a01b0316600a8260ff1681548110610a8957610a89611021565b6000918252602090912001546001600160a01b0316145b15610aae5760009150610ac0565b80610ab881611037565b915050610a20565b505b610ad68484610ad18486610fc2565b610c5c565b600081118015610aea5750600b5460ff1615155b15610b0757600754610b079085906001600160a01b031683610c5c565b50505050565b6001600160a01b038216610b6d5760405162461bcd60e51b815260206004820152602160248201527f42455032303a206275726e2066726f6d20746865207a65726f206164647265736044820152607360f81b60648201526084016104f1565b6001600160a01b03821660009081526020819052604090205481811015610be15760405162461bcd60e51b815260206004820152602260248201527f42455032303a206275726e20616d6f756e7420657863656564732062616c616e604482015261636560f01b60648201526084016104f1565b610beb8282610fc2565b6001600160a01b03841660009081526020819052604081209190915560028054849290610c19908490610fc2565b90915550506040518281526000906001600160a01b038516907fddf252ad1be2c89b69c2b068fc378daa952ba7f163c4a11628f55a4df523b3ef90602001610983565b6001600160a01b038316610cc05760405162461bcd60e51b815260206004820152602560248201527f42455032303a207472616e736665722066726f6d20746865207a65726f206164604482015264647265737360d81b60648201526084016104f1565b6001600160a01b038216610d225760405162461bcd60e51b815260206004820152602360248201527f42455032303a207472616e7366657220746f20746865207a65726f206164647260448201526265737360e81b60648201526084016104f1565b6001600160a01b03831660009081526020819052604090205481811015610d9a5760405162461bcd60e51b815260206004820152602660248201527f42455032303a207472616e7366657220616d6f756e7420657863656564732062604482015265616c616e636560d01b60648201526084016104f1565b610da48282610fc2565b6001600160a01b038086166000908152602081905260408082209390935590851681529081208054849290610dda908490610fd5565b92505081905550826001600160a01b0316846001600160a01b03167fddf252ad1be2c89b69c2b068fc378daa952ba7f163c4a11628f55a4df523b3ef84604051610e2691815260200190565b60405180910390a350505050565b600060208083528351808285015260005b81811015610e6157858101830151858201604001528201610e45565b506000604082860101526040601f19601f8301168501019250505092915050565b80356001600160a01b0381168114610e9957600080fd5b919050565b60008060408385031215610eb157600080fd5b610eba83610e82565b946020939093013593505050565b600080600060608486031215610edd57600080fd5b610ee684610e82565b9250610ef460208501610e82565b9150604084013590509250925092565b600060208284031215610f1657600080fd5b610f1f82610e82565b9392505050565b600060208284031215610f3857600080fd5b5035919050565b60008060408385031215610f5257600080fd5b610f5b83610e82565b9150610f6960208401610e82565b90509250929050565b600181811c90821680610f8657607f821691505b602082108103610fa657634e487b7160e01b600052602260045260246000fd5b50919050565b634e487b7160e01b600052601160045260246000fd5b8181038181111561045d5761045d610fac565b8082018082111561045d5761045d610fac565b808202811582820484141761045d5761045d610fac565b60008261101c57634e487b7160e01b600052601260045260246000fd5b500490565b634e487b7160e01b600052603260045260246000fd5b600060ff821660ff810361104d5761104d610fac565b6001019291505056fea2646970667358221220c5c09e13686411caa18df09ff9058a88b6ff45f49156d459290349401137e26b64736f6c63430008130033","linkReferences":{}},"methodIdentifiers":{"allowance(address,address)":"dd62ed3e","approve(address,uint256)":"095ea7b3","authority()":"bf7e214f","balanceOf(address)":"70a08231","burnFrom(address,uint256)":"79cc6790","decimals()":"313ce567","decreaseAllowance(address,uint256)":"a457c2d7","distributionContract()":"5a4528c2","exemptFee(uint256)":"d4cb1c50","feeAuthority()":"31dbd8a5","increaseAllowance(address,uint256)":"39509351","name()":"06fdde03","setDistributionContractAndRenounce(address)":"c19f7afa","setExemptFeeAndDisableAtCap(address)":"b0daff0b","symbol()":"95d89b41","totalSupply()":"18160ddd","transfer(address,uint256)":"a9059cbb","transferFrom(address,address,uint256)":"23b872dd"},"id":22}